:100000000C94B5000C9468030C94C1030C94D200BA
:100010000C94D2000C94D2000C94D2000C94D20018
:100020000C94D2000C94D2000C94D2000C94D20008
:100030000C94D2000C94E1020C94D2000C94D200E7
:100040000C94D2000C94D2000C94D2000C94D200E8
:100050000C94D2000C94D2000C94D2000C94D200D8
:100060000C94D2000C94D2006E616E00696E660032
:1000700000407A10F35A00A0724E18090010A5D45F
:10008000E80000E87648170000E40B54020000CABC
:100090009A3B000000E1F505000080969800000002
:1000A00040420F000000A086010000001027000061
:1000B0000000E803000000006400000000000A00E7
:1000C000000000000100000000002C76D888DC67EA
:1000D0004F0823DFC1DFAE59E1B1B796E5E3E45342
:1000E000C63AE651997696E8E6C28426EB898C9B5F
:1000F00062ED407C6FFCEFBC9C9F40F2BAA56FA5FF
:10010000F490055A2AF75C936B6CF9676DC11BFC80
:10011000E0E40D47FEF520E6B500D0ED902E03009B
:10012000943577050080841E080000204E0A0000E8
:1001300000C80C333333330F986E12831141EF8DA7
:100140002114893BE65516CFFEE6DB18D1844B38E7
:100150001BF77C1D901DA4BBE424203284725E2218
:100160008100C9F124ECA1E53D2711241FBECFEF8A
:10017000D8E0DEBFCDBF11E0A0E0B1E0EEEAF9E1EA
:1001800002C005900D92A036B107D9F721E0A0E694
:10019000B1E001C01D92A43AB207E1F70E946D02DE
:1001A0000C94D50C0C94000080FF04C095B19160B4
:1001B00095B903C095B19E7F95B981FF04C095B1F3
:1001C000926095B903C095B19D7F95B982FF04C037
:1001D00095B1946095B903C095B19B7F95B983FFA4
:1001E00004C085B1886085B9089585B1877F85B9D8
:1001F000089595B19F7E95B90E94D40085B1806223
:1002000085B987EE93E00197F1F700C0000085B152
:100210008F7D85B9089580E00E94D4008FE59AEE25
:100220000197F1F700C0000087EE93E00197F1F726
:1002300000C0000083E00E94F9008FE097E2019780
:10024000F1F700C0000083E00E94F9008BE291E02A
:100250000197F1F700C0000083E00E94F90082E0FE
:100260000E94F90082E00E94F90088E00E94F900F3
:1002700080E00E94F9008CE00E94F90080E00E947A
:10028000F90086E00E94F9000895CF93C82FCF703F
:1002900095B1906195B982958F700E94D40085B117
:1002A000806285B987EE93E00197F1F700C0000006
:1002B00085B18F7D85B987EE93E00197F1F700C096
:1002C00000008C2F0E94D40085B1806285B987EE32
:1002D00093E00197F1F700C0000085B18F7D85B9EB
:1002E00087EE93E00197F1F700C00000CF910895E9
:1002F000CF93DF93EC0103C021960E9445018881D2
:100300008111FACFDF91CF9108951F93CF93DF939F
:10031000C82FD62F813059F48FE7860F182F1F7002
:1003200082958F700E94F900812F0E94F900C230DF
:1003300059F48FEB8D0FC82FCF7082958F700E946C
:10034000F9008C2F0E94F900DF91CF911F91089541
:1003500080E00E94F90081E00E94F9000895ECE736
:10036000F0E080818F7780838081806480838081CA
:100370008F7D808380818F7D8083EAE7F0E08081BC
:100380008F7D80838081876080838FEF80937E0064
:100390000895ECE7F0E09081907F8F70892B808347
:1003A000EAE7F0E08081806C808380917A0086FDAE
:1003B000FCCFEAE7F0E080818F778083609178005E
:1003C0007091790080E090E00E942B060895E2ECA5
:1003D000F0E080818F7B808380818F778083808134
:1003E0008F7E808380818F7D80838081877F8083E3
:1003F000808182608083808184608083E1ECF0E092
:1004000080818B7F8083A0ECB0E08C9182608C93A4
:1004100087E690E09093C5008093C4008081886057
:10042000808380818061808380818068808308955B
:100430009091C00095FFFCCF8093C6000895CF93A4
:10044000DF93EC0103C021960E941802888181117C
:10045000FACFDF91CF9108958AB180648AB983E0A1
:1004600084BD84B5806884BD85E085BD08952FEF87
:10047000829FC001112464E670E00E94CC0A67BD2F
:100480000895EFE6F0E08081816080838BEC93EF4C
:100490009093850080938400E1E8F0E0808184609F
:1004A000808308958AB18B7F8AB9E9E6F0E0808184
:1004B000836080838DB381608DBB08958AB1877F0F
:1004C0008AB9E9E6F0E080818C60808380818B7F4F
:1004D00080838DB382608DBB0895F8948FEF84B9CB
:1004E00080E091E00E941A040E9441020E94AF0144
:1004F0000E94E7010E942C020E940B010E94A801A9
:100500000E9452020E945E02789480E00E94C9011B
:1005100020E030E04AEF53E40E94E20620E030E0C1
:1005200040E85AE30E94E20660936401709365011B
:10053000809366019093670180912F018F93809142
:100540002E018F9380912D018F9380912C018F9399
:1005500080E391E09F938F9388E691E09F938F9340
:100560000E94550C809167018F93809166018F9353
:10057000809165018F93809164018F9381E491E074
:100580009F938F9380E991E09F938F930E94550CE6
:1005900061E081E00E94850188E691E00E94780197
:1005A00061E082E00E94850180E991E00E9478018B
:1005B0008DB79EB740960FB6F8949EBF0FBE8DBF05
:1005C000A4CF1F920F920FB60F9211240F931F9377
:1005D0002F933F934F935F936F937F938F939F934B
:1005E000AF93BF93EF93FF93009164011091650166
:1005F000209166013091670140912C0150912D01AD
:1006000060912E0170912F0180E091E00E942C04F6
:100610006093600170936101809362019093630124
:100620000E94FC05862F0E94370280912F018F9334
:1006300080912E018F9380912D018F9380912C01B9
:100640008F93809163018F93809162018F9380914A
:1006500061018F93809160018F93809167018F93E7
:10066000809166018F93809165018F9380916401E1
:100670008F938FE491E09F938F938CE791E09F930A
:100680008F930E94550C8CE791E00E941F028BEC27
:1006900093EF90938500809384008DB79EB740962A
:1006A0000FB6F8949EBF0FBE8DBFFF91EF91BF9123
:1006B000AF919F918F917F916F915F914F913F91FA
:1006C0002F911F910F910F900FBE0F901F901895B3
:1006D0001F920F920FB60F921124CF92DF92EF92DA
:1006E000FF922F933F934F935F936F937F938F93DB
:1006F0009F93AF93BF93EF93FF93C0902C01D09043
:100700002D01E0902E01F0902F0120E030E048EC28
:1007100053E4C701B6010E94DD0688236CF080E037
:1007200090E0A8ECB3E480932C0190932D01A0936A
:100730002E01B0932F0110C020E030E040E251E4E0
:10074000C701B6010E94190560932C0170932D0119
:1007500080932E0190932F01FF91EF91BF91AF9164
:100760009F918F917F916F915F914F913F912F91C9
:10077000FF90EF90DF90CF900F900FBE0F901F90E3
:1007800018951F920F920FB60F921124CF92DF92FD
:10079000EF92FF922F933F934F935F936F937F93CB
:1007A0008F939F93AF93BF93EF93FF93C0902C01D0
:1007B000D0902D01E0902E01F0902F0120E030E04C
:1007C00048E452E4C701B6010E94850518166CF092
:1007D00080E090E0A8E4B2E480932C0190932D0196
:1007E000A0932E01B0932F0110C020E030E040E232
:1007F00051E4C701B6010E94180560932C01709363
:100800002D0180932E0190932F01FF91EF91BF91C5
:10081000AF919F918F917F916F915F914F913F9198
:100820002F91FF90EF90DF90CF900F900FBE0F9021
:100830001F901895FC01108E118E128E138E10A22F
:1008400011A212A213A214A215A216A217A2148E0C
:10085000158E168E178E08954F925F926F927F922B
:100860008F929F92AF92BF92CF92DF92EF92FF92C0
:100870000F931F93CF93DF93CDB7DEB72A970FB6B1
:10088000F894DEBF0FBECDBF9A878987CB01BA012E
:10089000A90198010E94180569837A838B839C8340
:1008A000A985BA852D913D914D915C910E94E206FA
:1008B0006D837E838F839887E985FA8524813581CE
:1008C0004681578169817A818B819C810E94E206F1
:1008D000A985BA8554968D909D90AD90BC90579700
:1008E000A50194010E94E206E985FA85248D358DE3
:1008F000468D578D0E9419056B017C01A985BA852B
:1009000058966D937D938D939C935B9718964D901D
:100910005D906D907C901B9790962D913D914D919F
:100920005C91939769817A818B819C810E941805E3
:100930009B01AC01C301B2010E94E206A501940132
:100940000E948A054B015C01E985FA8564A375A3C1
:1009500086A397A3A70196016D817E818F819885DB
:100960000E9419059B01AC01C501B4010E94190543
:100970004B015C01A985BA8598966D937D938D9303
:100980009C939B971C964D905D906D907C901F97CB
:10099000A30192010E94DD0618163CF4E985FA8550
:1009A00040A651A662A673A616C0A985BA85509620
:1009B0004D905D906D907C905397A3019201C5017D
:1009C000B4010E948505882334F4E985FA8540A6A0
:1009D00051A662A673A6A985BA855C96CD92DD92D2
:1009E000ED92FC925F9789819A81AB81BC81E98508
:1009F000FA8580A391A3A2A3B3A360A571A582A544
:100A000093A52A960FB6F894DEBF0FBECDBFDF9137
:100A1000CF911F910F91FF90EF90DF90CF90BF90FB
:100A2000AF909F908F907F906F905F904F900895C0
:100A30005058BB27AA270E9430050C94A3060E9499
:100A4000950638F00E949C0620F039F49F3F19F477
:100A500026F40C9492060EF4E095E7FB0C948C06B9
:100A6000E92F0E94B40658F3BA1762077307840788
:100A7000950720F079F4A6F50C94D6060EF4E095CF
:100A80000B2EBA2FA02D0B01B90190010C01CA0148
:100A9000A0011124FF27591B99F0593F50F4503EF3
:100AA00068F11A16F040A22F232F342F4427585FE5
:100AB000F3CF469537952795A795F0405395C9F7FD
:100AC0007EF41F16BA0B620B730B840BBAF09150B5
:100AD000A1F0FF0FBB1F661F771F881FC2F70EC054
:100AE000BA0F621F731F841F48F487957795679527
:100AF000B795F7959E3F08F0B0CF9395880F08F013
:100B00009927EE0F9795879508950E94680608F437
:100B100081E008950E949E050C94A3060E949C0605
:100B200058F00E94950640F029F45F3F29F00C949C
:100B30008C0651110C94D7060C9492060E94B406B0
:100B400068F39923B1F3552391F3951B550BBB27FC
:100B5000AA2762177307840738F09F5F5F4F220F41
:100B6000331F441FAA1FA9F335D00E2E3AF0E0E838
:100B700032D091505040E695001CCAF72BD0FE2F82
:100B800029D0660F771F881FBB1F26173707480716
:100B9000AB07B0E809F0BB0B802DBF01FF279358CE
:100BA0005F4F3AF09E3F510578F00C948C060C9400
:100BB000D7065F3FE4F3983ED4F386957795679523
:100BC000B795F7959F5FC9F7880F911D9695879503
:100BD00097F90895E1E0660F771F881FBB1F621722
:100BE00073078407BA0720F0621B730B840BBA0BE0
:100BF000EE1F88F7E09508950E94BC0688F09F5785
:100C000098F0B92F9927B751B0F0E1F0660F771F30
:100C1000881F991F1AF0BA95C9F714C0B13091F026
:100C20000E94D606B1E008950C94D606672F782F5F
:100C30008827B85F39F0B93FCCF3869577956795EB
:100C4000B395D9F73EF490958095709561957F4F57
:100C50008F4F9F4F0895E89409C097FB3EF49095FD
:100C60008095709561957F4F8F4F9F4F9923A9F085
:100C7000F92F96E9BB279395F69587957795679514
:100C8000B795F111F8CFFAF4BB0F11F460FF1BC058
:100C90006F5F7F4F8F4F9F4F16C0882311F096E9EB
:100CA00011C0772321F09EE8872F762F05C0662399
:100CB00071F096E8862F70E060E02AF09A95660F52
:100CC000771F881FDAF7880F9695879597F908950B
:100CD000990F0008550FAA0BE0E8FEEF161617064D
:100CE000E807F907C0F012161306E407F50798F0B5
:100CF000621B730B840B950B39F40A2661F0232BCE
:100D0000242B252B21F408950A2609F4A140A69549
:100D10008FEF811D811D089597F99F6780E870E02E
:100D200060E008959FEF80EC089500240A94161661
:100D3000170618060906089500240A9412161306C9
:100D4000140605060895092E0394000C11F4882357
:100D500052F0BB0F40F4BF2B11F460FF04C06F5F73
:100D60007F4F8F4F9F4F089557FD9058440F551F49
:100D700059F05F3F71F04795880F97FB991F61F01D
:100D80009F3F79F087950895121613061406551F94
:100D9000F2CF4695F1DF08C0161617061806991F00
:100DA000F1CF86957105610508940895E894BB27F5
:100DB00066277727CB0197F908950E94680608F403
:100DC0008FEF08950E94F5060C94A3060E949506E5
:100DD00038F00E949C0620F0952311F00C948C06AC
:100DE0000C94920611240C94D7060E94B40670F35A
:100DF000959FC1F3950F50E0551F629FF001729FC0
:100E0000BB27F00DB11D639FAA27F00DB11DAA1FCE
:100E1000649F6627B00DA11D661F829F2227B00D1B
:100E2000A11D621F739FB00DA11D621F839FA00DA6
:100E3000611D221F749F3327A00D611D231F849FF6
:100E4000600D211D822F762F6A2F11249F5750404D
:100E50009AF0F1F088234AF0EE0FFF1FBB1F661FC8
:100E6000771F881F91505040A9F79E3F510580F091
:100E70000C948C060C94D7065F3FE4F3983ED4F3B1
:100E8000869577956795B795F795E7959F5FC1F735
:100E9000FE2B880F911D9695879597F90895A0E1EF
:100EA000B0E0E5E5F7E00C94E00A7C011B016A0183
:100EB000FC0117821682838181FF44C39E012F5F4C
:100EC0003F4F3901F7019381F10193FD859193FF24
:100ED00081911F01882309F431C3853239F493FDD0
:100EE000859193FF81911F01853239F4B70190E01C
:100EF0000E94190C56016501E5CF10E0512C912C90
:100F0000FFE1F915D8F08B3279F038F4803279F0BE
:100F10008332A1F4F92DF0612EC08D3261F080335F
:100F200069F4292D21602DC0392D3260932E892D31
:100F30008460982E2AC0E92DE86015C097FC2DC06A
:100F400020ED280F2A3088F496FE06C03AE0139F61
:100F5000200D1124122F19C08AE0589E200D112453
:100F6000522EE92DE0629E2E10C08E3231F496FC96
:100F7000E5C2F92DF0649F2E08C08C3621F4292D8E
:100F80002068922E02C0883641F4F10193FD8591CC
:100F900093FF81911F018111B3CF9BEB980F933089
:100FA00020F4992D9061805E07C09BE9980F9330E3
:100FB00008F066C1992D9F7E96FF16E09F73992ECB
:100FC000853619F49064992E08C0863621F4392F9D
:100FD0003068932E02C01111115097FE07C01C33C8
:100FE00050F444244394410E27E00BC0183038F0ED
:100FF00027E017E005C027E09CE3492E02C0212F1F
:10100000412C560184E0A80EB11CF601608171816B
:1010100082819381042DA3010E942B0B6C01F98125
:10102000FC87F0FF02C0F3FF06C091FC06C092FEF1
:1010300006C000E205C00DE203C00BE201C000E003
:101040008C858C7019F001115AC29BC297FE10C09A
:101050004C0CFC85F4FF04C08A81813309F44A9466
:10106000141474F528E0241578F588E0482E2CC077
:1010700096FC2AC0812F90E08C159D059CF03CEFDA
:10108000C3163FEFD30674F0892D8068982E0AC0EE
:10109000E2E0F0E0EC0FFD1FE10FF11D80818033F5
:1010A00019F411501111F4CF97FE0EC0442443944B
:1010B000410E812F90E0C816D9062CF41C1904C0EB
:1010C0004424439401C010E097FE06C01C141D0484
:1010D00034F4C601019605C085E090E002C081E0CD
:1010E00090E001110196112331F0212F30E02F5FA4
:1010F0003F4F820F931F252D30E08217930714F482
:10110000581A01C0512C892D897049F4552039F0A5
:10111000B70180E290E00E94190C5A94F7CF0023A7
:1011200029F0B701802F90E00E94190C93FC09C0B0
:10113000552039F0B70180E390E00E94190C5A94D1
:10114000F7CF97FE4CC04601D7FE02C0812C912CF0
:10115000C60188199909F301E80FF91FFE87ED8789
:10116000960124193109388B2F87012F10E0119532
:10117000019511093FEF8316930629F4B7018EE21A
:1011800090E00E94190CC814D9044CF08F859889FE
:101190008815990524F4ED85FE85818101C080E3E1
:1011A000F1E08F1A91082D853E852F5F3F4F3E87D6
:1011B0002D87801691062CF0B70190E00E94190C43
:1011C000D9CFC814D90441F49A81963320F49533C9
:1011D00019F43C8534FF81E3B70190E04EC08A8169
:1011E000813319F09C859F7E9C87B70190E00E9417
:1011F000190C111105C094FC18C085E690E017C0C9
:10120000B7018EE290E00E94190C1E5F82E001E0BF
:10121000080FF301E80FF11D8081B70190E00E94F3
:10122000190C802F0113F3CFE6CF85E490E0B701CE
:101230000E94190CD7FC06C0C114D10441F4EC85FE
:10124000E4FF05C0D194C194D1088DE201C08BE2C6
:10125000B70190E00E94190C80E32AE0C216D10485
:101260002CF08F5FFAE0CF1AD108F7CFB70190E0EA
:101270000E94190CB701C601C0960E94190C54C1F6
:10128000833631F0833779F0833509F056C020C0BA
:10129000560132E0A30EB11CF6018081898301E082
:1012A00010E0630112C05601F2E0AF0EB11CF6016E
:1012B000C080D18096FE03C0612F70E002C06FEF46
:1012C0007FEFC6010E940E0C8C01F92DFF7714C030
:1012D000560122E0A20EB11CF601C080D18096FE1C
:1012E00003C0612F70E002C06FEF7FEFC6010E9464
:1012F000030C8C01F92DF0689F2EF3FD1AC0852D8B
:1013000090E008171907A8F4B70180E290E00E9466
:10131000190C5A94F4CFF60197FC859197FE8191B0
:101320006F01B70190E00E94190C51105A940150BE
:1013300011090115110579F7F7C0843611F08936C6
:1013400061F5560197FE09C024E0A20EB11CF6011A
:1013500060817181828193810AC0F2E0AF0EB11C7D
:10136000F60160817181072E000C880B990BF92D15
:10137000FF769F2E97FF09C0909580957095619597
:101380007F4F8F4F9F4FF0689F2E2AE030E0A301E0
:101390000E94770CC82EC6183FC0092D853721F44E
:1013A0000F7E2AE030E01DC0097F8F3691F018F4DF
:1013B000883559F0C3C0803719F0883711F0BEC0A6
:1013C000006104FF09C0046007C094FE08C0066005
:1013D00006C028E030E005C020E130E002C020E196
:1013E00032E0560107FF09C084E0A80EB11CF601E7
:1013F000608171818281938108C0F2E0AF0EB11CDF
:10140000F6016081718180E090E0A3010E94770C79
:10141000C82EC6180F77902E96FE0BC0092D0E7F92
:10142000C11650F494FE0AC092FC08C0092D0E7E2D
:1014300005C0DC2C092D03C0DC2C01C0D12E04FF1B
:101440000DC0FE01EC0DF11D8081803311F4097E89
:1014500009C002FF06C0D394D39404C0802F8678BD
:1014600009F0D39403FD11C000FF06C01C2DD51454
:1014700080F4150D1D190DC0D51458F4B70180E284
:1014800090E00E94190CD394F7CFD51410F45D1896
:1014900001C0512C04FF10C0B70180E390E00E940E
:1014A000190C02FF17C001FD03C088E790E002C0DD
:1014B00088E590E0B7010CC0802F867859F001FFD5
:1014C00002C08BE201C080E207FD8DE2B70190E02F
:1014D0000E94190CC11638F4B70180E390E00E9415
:1014E000190C1150F7CFCA94F301EC0DF11D808156
:1014F000B70190E00E94190CC110F5CF15C0F4E0BF
:10150000F51560F584E0581A93FE1FC0011127C03D
:101510002C8523FF2AC008E610E0392D3071932E68
:10152000F8018491811124C0552009F4E4CCB7015D
:1015300080E290E00E94190C5A94F6CFF701868160
:10154000978126C08FEF9FEF23C0B70180E290E024
:101550000E94190C5A945110F8CFD8CF512CB701D2
:10156000802F90E00E94190CD3CF0CE610E0D5CF6D
:1015700091108052B70190E00E94190C0F5F1F4F2D
:10158000CFCF23E0251510F483E0BDCF512CC0CF81
:101590006096E2E10C94FC0A97FB072E16F4009487
:1015A00007D077FD09D00E94170B07FC05D03EF449
:1015B000909581959F4F0895709561957F4F0895FF
:1015C0002F923F924F925F926F927F928F929F9253
:1015D000AF92BF92CF92DF92EF92FF920F931F9341
:1015E000CF93DF93CDB7DEB7CA1BDB0B0FB6F894F2
:1015F000DEBF0FBECDBF09942A88398848885F8432
:101600006E847D848C849B84AA84B984C884DF80A2
:10161000EE80FD800C811B81AA81B981CE0FD11D86
:101620000FB6F894DEBF0FBECDBFED010895AA1B23
:10163000BB1B51E107C0AA1FBB1FA617B70710F0BD
:10164000A61BB70B881F991F5A95A9F780959095EF
:10165000BC01CD010895283008F027E03327DA01D6
:10166000990F311D87FD916000966105710539F470
:1016700032602E5F3D9330E32A95E1F708959F3F56
:1016800030F080387105610509F03C5F3C5F3D93A7
:10169000913008F08068911DDF93CF931F930F93D3
:1016A000FF92EF92192F987F9695E92F9695969530
:1016B000E90FFF27E653FF4F99273327EE24FF2436
:1016C000A701E70105900894079428F4360FE71E58
:1016D000F81E491F511D660F771F881F991F06941A
:1016E000A1F70590079428F4E70EF81E491F561F2E
:1016F000C11D770F881F991F661F0694A1F70590DB
:10170000079428F4F80E491F561FC71FD11D880FD4
:10171000991F661F771F0694A1F70590079420F480
:10172000490F561FC71FD81F990F661F771F881FA5
:101730000694A9F784911095177041F0D695C79536
:1017400057954795F794E7941A95C1F7E0E7F0E0CD
:1017500068941590159135916591959105907FE26A
:101760007395E118F10A430B560BC90BD009C0F76A
:10177000E10CF11E431F561FC91FD01D7EF47033AC
:1017800011F48A95E6CFE894015030F0080F0AF47E
:101790000027021708F4202F2395022F7A3328F010
:1017A00079E37D932A95E9F710C07D932A9589F610
:1017B000069497956795379517951794E118F10A50
:1017C000430B560BC90BD00998F023957E91739566
:1017D0007A3308F070E37C932013B8F77E91706140
:1017E0007D9330F0839571E37D9370E32A95E1F763
:1017F0001124EF90FF900F911F91CF91DF919927C6
:1018000087FD90950895FC0105906150704001108E
:10181000D8F7809590958E0F9F1F0895FC01615019
:10182000704001900110D8F7809590958E0F9F1F02
:1018300008950F931F93CF93DF93FB01238121FD25
:1018400003C08FEF9FEF2CC022FF16C04681578147
:10185000248135814217530744F4A081B1819D0151
:101860002F5F3F4F318320838C93268137812F5FF9
:101870003F4F3783268314C08B01EC01FB010084AA
:10188000F185E02D0995892BE1F6D80116968D9109
:101890009C911797019617969C938E931697CE015D
:1018A000DF91CF911F910F910895AEE0B0E0EBE58D
:1018B000FCE00C94EE0A0D891E8986E08C831A8365
:1018C00009838FEF9FE79E838D83AE01475E5F4F55
:1018D0006F89788DCE0101960E944F07EF81F885C0
:1018E000E00FF11F10822E96E4E00C940A0BFA012F
:1018F000AA27283051F1203181F1E8946F936E7F4F
:101900006E5F7F4F8F4F9F4FAF4FB1E03ED0B4E03F
:101910003CD0670F781F891F9A1FA11D680F791F80
:101920008A1F911DA11D6A0F711D811D911DA11D91
:1019300020D009F468943F912AE0269F11243019A1
:10194000305D3193DEF6CF010895462F4770405D3C
:101950004193B3E00FD0C9F7F6CF462F4F70405DEB
:101960004A3318F0495D31FD4052419302D0A9F746
:10197000EACFB4E0A6959795879577956795BA9540
:10198000C9F700976105710508959B01AC010A2E06
:1019900006945795479537952795BA95C9F7620FDD
:0E19A000731F841F951FA01D0895F894FFCF9C
:1019AE00064CC03E8B1A4C3D000000000000C842A1
:1019BE0000000000CDCCCC3D000000000000000077
:1019CE000000000000000000000000000000C843FE
:1019DE00536574506F696E743A20252E30660D2053
:1019EE0000543A20252E30660D2020202020002580
:1019FE002E30662D252E30662D252E30660A0000DF
:00000001FF
